{
  "contractName": "Marketplace",
  "abi": [
    {
      "inputs": [],
      "stateMutability": "payable",
      "type": "constructor",
      "payable": true
    },
    {
      "anonymous": false,
      "inputs": [
        {
          "indexed": false,
          "internalType": "uint256",
          "name": "id",
          "type": "uint256"
        },
        {
          "indexed": false,
          "internalType": "string",
          "name": "name",
          "type": "string"
        },
        {
          "indexed": false,
          "internalType": "uint256",
          "name": "price",
          "type": "uint256"
        },
        {
          "indexed": false,
          "internalType": "address payable",
          "name": "owner",
          "type": "address"
        }
      ],
      "name": "CourseCreated",
      "type": "event"
    },
    {
      "anonymous": false,
      "inputs": [
        {
          "indexed": false,
          "internalType": "uint256",
          "name": "id",
          "type": "uint256"
        },
        {
          "indexed": false,
          "internalType": "string",
          "name": "name",
          "type": "string"
        },
        {
          "indexed": false,
          "internalType": "uint256",
          "name": "price",
          "type": "uint256"
        },
        {
          "indexed": false,
          "internalType": "address payable",
          "name": "owner",
          "type": "address"
        },
        {
          "indexed": false,
          "internalType": "uint256[]",
          "name": "subscriberList",
          "type": "uint256[]"
        }
      ],
      "name": "CourseSubscribed",
      "type": "event"
    },
    {
      "anonymous": false,
      "inputs": [
        {
          "indexed": false,
          "internalType": "address",
          "name": "",
          "type": "address"
        },
        {
          "indexed": false,
          "internalType": "uint256",
          "name": "",
          "type": "uint256"
        }
      ],
      "name": "Received",
      "type": "event"
    },
    {
      "anonymous": false,
      "inputs": [
        {
          "indexed": false,
          "internalType": "address payable",
          "name": "owner",
          "type": "address"
        },
        {
          "indexed": false,
          "internalType": "uint256",
          "name": "balance",
          "type": "uint256"
        }
      ],
      "name": "RewardsBalance",
      "type": "event"
    },
    {
      "inputs": [],
      "name": "courseCount",
      "outputs": [
        {
          "internalType": "uint256",
          "name": "",
          "type": "uint256"
        }
      ],
      "stateMutability": "view",
      "type": "function",
      "constant": true
    },
    {
      "inputs": [
        {
          "internalType": "uint256",
          "name": "",
          "type": "uint256"
        }
      ],
      "name": "courses",
      "outputs": [
        {
          "internalType": "uint256",
          "name": "id",
          "type": "uint256"
        },
        {
          "internalType": "string",
          "name": "name",
          "type": "string"
        },
        {
          "internalType": "uint256",
          "name": "price",
          "type": "uint256"
        },
        {
          "internalType": "address payable",
          "name": "owner",
          "type": "address"
        }
      ],
      "stateMutability": "view",
      "type": "function",
      "constant": true
    },
    {
      "inputs": [],
      "name": "name",
      "outputs": [
        {
          "internalType": "string",
          "name": "",
          "type": "string"
        }
      ],
      "stateMutability": "view",
      "type": "function",
      "constant": true
    },
    {
      "inputs": [
        {
          "internalType": "address",
          "name": "",
          "type": "address"
        }
      ],
      "name": "userDownloads",
      "outputs": [
        {
          "internalType": "uint256",
          "name": "",
          "type": "uint256"
        }
      ],
      "stateMutability": "view",
      "type": "function",
      "constant": true
    },
    {
      "stateMutability": "payable",
      "type": "receive",
      "payable": true
    },
    {
      "inputs": [],
      "name": "viewBalance",
      "outputs": [
        {
          "internalType": "uint256",
          "name": "",
          "type": "uint256"
        }
      ],
      "stateMutability": "view",
      "type": "function",
      "constant": true
    },
    {
      "inputs": [],
      "name": "getCourseId",
      "outputs": [
        {
          "internalType": "uint256",
          "name": "",
          "type": "uint256"
        }
      ],
      "stateMutability": "view",
      "type": "function",
      "constant": true
    },
    {
      "inputs": [
        {
          "internalType": "string",
          "name": "_name",
          "type": "string"
        },
        {
          "internalType": "uint256",
          "name": "_price",
          "type": "uint256"
        }
      ],
      "name": "createCourse",
      "outputs": [],
      "stateMutability": "nonpayable",
      "type": "function"
    },
    {
      "inputs": [
        {
          "internalType": "uint256",
          "name": "_id",
          "type": "uint256"
        }
      ],
      "name": "subscribeCourse",
      "outputs": [],
      "stateMutability": "payable",
      "type": "function",
      "payable": true
    },
    {
      "inputs": [],
      "name": "getEnrolledCourses",
      "outputs": [
        {
          "internalType": "uint256[]",
          "name": "",
          "type": "uint256[]"
        }
      ],
      "stateMutability": "view",
      "type": "function",
      "constant": true
    },
    {
      "inputs": [],
      "name": "getRewards",
      "outputs": [],
      "stateMutability": "nonpayable",
      "type": "function"
    }
  ],
  "bytecode": "0x608060405260006001556040518060400160405280601281526020017f554250726570204d61726b6574706c61636500000000000000000000000000008152506000908051906020019062000056929190620000a5565b503073ffffffffffffffffffffffffffffffffffffffff166108fc349081150290604051600060405180830381858888f193505050501580156200009e573d6000803e3d6000fd5b50620001b9565b828054620000b39062000184565b90600052602060002090601f016020900481019282620000d7576000855562000123565b82601f10620000f257805160ff191683800117855562000123565b8280016001018555821562000123579182015b828111156200012257825182559160200191906001019062000105565b5b50905062000132919062000136565b5090565b5b808211156200015157600081600090555060010162000137565b5090565b7f4e487b7100000000000000000000000000000000000000000000000000000000600052602260045260246000fd5b600060028204905060018216806200019d57607f821691505b602082108103620001b357620001b262000155565b5b50919050565b61130280620001c96000396000f3fe6080604052600436106100955760003560e01c80636605515911610059578063660551591461019d57806374cbf8bb146101c857806396f979d2146101e4578063a1db0e2714610224578063fd9c09981461024d576100d5565b80630502678e146100da5780630572b0cc1461010557806306fdde031461011c5780633ff1e05b1461014757806350808e8b14610172576100d5565b366100d5577f88a5966d370b9919b20f3e2c13ff65706f196a4e32cc2c12bf57088f8852587433346040516100cb929190610b68565b60405180910390a1005b600080fd5b3480156100e657600080fd5b506100ef61028a565b6040516100fc9190610c4f565b60405180910390f35b34801561011157600080fd5b5061011a610322565b005b34801561012857600080fd5b5061013161046d565b60405161013e9190610d0a565b60405180910390f35b34801561015357600080fd5b5061015c6104fb565b6040516101699190610d2c565b60405180910390f35b34801561017e57600080fd5b50610187610503565b6040516101949190610d2c565b60405180910390f35b3480156101a957600080fd5b506101b261050d565b6040516101bf9190610d2c565b60405180910390f35b6101e260048036038101906101dd9190610d87565b610513565b005b3480156101f057600080fd5b5061020b60048036038101906102069190610d87565b61083c565b60405161021b9493929190610dd5565b60405180910390f35b34801561023057600080fd5b5061024b60048036038101906102469190610f56565b610914565b005b34801561025957600080fd5b50610274600480360381019061026f9190610fde565b610a53565b6040516102819190610d2c565b60405180910390f35b6060600460003373ffffffffffffffffffffffffffffffffffffffff1673ffffffffffffffffffffffffffffffffffffffff16815260200190815260200160002060000180548060200260200160405190810160405280929190818152602001828054801561031857602002820191906000526020600020905b815481526020019060010190808311610304575b5050505050905090565b6005600360003373ffffffffffffffffffffffffffffffffffffffff1673ffffffffffffffffffffffffffffffffffffffff16815260200190815260200160002054101561036f57600080fd5b6005600360003373ffffffffffffffffffffffffffffffffffffffff1673ffffffffffffffffffffffffffffffffffffffff16815260200190815260200160002060008282546103bf919061103a565b925050819055506000674563918244f4000090503373ffffffffffffffffffffffffffffffffffffffff166108fc829081150290604051600060405180830381858888f19350505050158015610419573d6000803e3d6000fd5b507f765d64b1faede47917e8e62fb9e7762ebd46a97d1018eaf5591c0bfbded42356333373ffffffffffffffffffffffffffffffffffffffff163160405161046292919061106e565b60405180910390a150565b6000805461047a906110c6565b80601f01602080910402602001604051908101604052809291908181526020018280546104a6906110c6565b80156104f35780601f106104c8576101008083540402835291602001916104f3565b820191906000526020600020905b8154815290600101906020018083116104d657829003601f168201915b505050505081565b600047905090565b6000600154905090565b60015481565b6000600260008381526020019081526020016000206040518060800160405290816000820154815260200160018201805461054d906110c6565b80601f0160208091040260200160405190810160405280929190818152602001828054610579906110c6565b80156105c65780601f1061059b576101008083540402835291602001916105c6565b820191906000526020600020905b8154815290600101906020018083116105a957829003601f168201915b50505050508152602001600282015481526020016003820160009054906101000a900473ffffffffffffffffffffffffffffffffffffffff1673ffffffffffffffffffffffffffffffffffffffff1673ffffffffffffffffffffffffffffffffffffffff16815250509050600081606001519050600082600001511180156106545750600154826000015111155b61065d57600080fd5b816040015134101561066e57600080fd5b3373ffffffffffffffffffffffffffffffffffffffff168173ffffffffffffffffffffffffffffffffffffffff16036106a657600080fd5b8073ffffffffffffffffffffffffffffffffffffffff166108fc349081150290604051600060405180830381858888f193505050501580156106ec573d6000803e3d6000fd5b50600460003373ffffffffffffffffffffffffffffffffffffffff1673ffffffffffffffffffffffffffffffffffffffff1681526020019081526020016000206000018390806001815401808255809150506001900390600052602060002001600090919091909150556001600360008373ffffffffffffffffffffffffffffffffffffffff1673ffffffffffffffffffffffffffffffffffffffff16815260200190815260200160002060008282546107a691906110f7565b925050819055507f4805bd172d0befe30e52ee5882e491ad001bd27022f50888c54b95cb9c6aed026001548360200151846040015133600460003373ffffffffffffffffffffffffffffffffffffffff1673ffffffffffffffffffffffffffffffffffffffff16815260200190815260200160002060000160405161082f959493929190611223565b60405180910390a1505050565b6002602052806000526040600020600091509050806000015490806001018054610865906110c6565b80601f0160208091040260200160405190810160405280929190818152602001828054610891906110c6565b80156108de5780601f106108b3576101008083540402835291602001916108de565b820191906000526020600020905b8154815290600101906020018083116108c157829003601f168201915b5050505050908060020154908060030160009054906101000a900473ffffffffffffffffffffffffffffffffffffffff16905084565b600082511161092257600080fd5b6000811161092f57600080fd5b6001600081548092919061094290611284565b9190505550604051806080016040528060015481526020018381526020018281526020013373ffffffffffffffffffffffffffffffffffffffff168152506002600060015481526020019081526020016000206000820151816000015560208201518160010190805190602001906109bb929190610a6b565b506040820151816002015560608201518160030160006101000a81548173ffffffffffffffffffffffffffffffffffffffff021916908373ffffffffffffffffffffffffffffffffffffffff1602179055509050507f4aef92db777bdc6252138a7a07684420ea0a02c4704c896bfe217e76a33d7e65600154838333604051610a479493929190610dd5565b60405180910390a15050565b60036020528060005260406000206000915090505481565b828054610a77906110c6565b90600052602060002090601f016020900481019282610a995760008555610ae0565b82601f10610ab257805160ff1916838001178555610ae0565b82800160010185558215610ae0579182015b82811115610adf578251825591602001919060010190610ac4565b5b509050610aed9190610af1565b5090565b5b80821115610b0a576000816000905550600101610af2565b5090565b600073ffffffffffffffffffffffffffffffffffffffff82169050919050565b6000610b3982610b0e565b9050919050565b610b4981610b2e565b82525050565b6000819050919050565b610b6281610b4f565b82525050565b6000604082019050610b7d6000830185610b40565b610b8a6020830184610b59565b9392505050565b600081519050919050565b600082825260208201905092915050565b6000819050602082019050919050565b610bc681610b4f565b82525050565b6000610bd88383610bbd565b60208301905092915050565b6000602082019050919050565b6000610bfc82610b91565b610c068185610b9c565b9350610c1183610bad565b8060005b83811015610c42578151610c298882610bcc565b9750610c3483610be4565b925050600181019050610c15565b5085935050505092915050565b60006020820190508181036000830152610c698184610bf1565b905092915050565b600081519050919050565b600082825260208201905092915050565b60005b83811015610cab578082015181840152602081019050610c90565b83811115610cba576000848401525b50505050565b6000601f19601f8301169050919050565b6000610cdc82610c71565b610ce68185610c7c565b9350610cf6818560208601610c8d565b610cff81610cc0565b840191505092915050565b60006020820190508181036000830152610d248184610cd1565b905092915050565b6000602082019050610d416000830184610b59565b92915050565b6000604051905090565b600080fd5b600080fd5b610d6481610b4f565b8114610d6f57600080fd5b50565b600081359050610d8181610d5b565b92915050565b600060208284031215610d9d57610d9c610d51565b5b6000610dab84828501610d72565b91505092915050565b6000610dbf82610b0e565b9050919050565b610dcf81610db4565b82525050565b6000608082019050610dea6000830187610b59565b8181036020830152610dfc8186610cd1565b9050610e0b6040830185610b59565b610e186060830184610dc6565b95945050505050565b600080fd5b600080fd5b7f4e487b7100000000000000000000000000000000000000000000000000000000600052604160045260246000fd5b610e6382610cc0565b810181811067ffffffffffffffff82111715610e8257610e81610e2b565b5b80604052505050565b6000610e95610d47565b9050610ea18282610e5a565b919050565b600067ffffffffffffffff821115610ec157610ec0610e2b565b5b610eca82610cc0565b9050602081019050919050565b82818337600083830152505050565b6000610ef9610ef484610ea6565b610e8b565b905082815260208101848484011115610f1557610f14610e26565b5b610f20848285610ed7565b509392505050565b600082601f830112610f3d57610f3c610e21565b5b8135610f4d848260208601610ee6565b91505092915050565b60008060408385031215610f6d57610f6c610d51565b5b600083013567ffffffffffffffff811115610f8b57610f8a610d56565b5b610f9785828601610f28565b9250506020610fa885828601610d72565b9150509250929050565b610fbb81610b2e565b8114610fc657600080fd5b50565b600081359050610fd881610fb2565b92915050565b600060208284031215610ff457610ff3610d51565b5b600061100284828501610fc9565b91505092915050565b7f4e487b7100000000000000000000000000000000000000000000000000000000600052601160045260246000fd5b600061104582610b4f565b915061105083610b4f565b9250828210156110635761106261100b565b5b828203905092915050565b60006040820190506110836000830185610dc6565b6110906020830184610b59565b9392505050565b7f4e487b7100000000000000000000000000000000000000000000000000000000600052602260045260246000fd5b600060028204905060018216806110de57607f821691505b6020821081036110f1576110f0611097565b5b50919050565b600061110282610b4f565b915061110d83610b4f565b9250827fffffffffffffffffffffffffffffffffffffffffffffffffffffffffffffffff038211156111425761114161100b565b5b828201905092915050565b600081549050919050565b60008190508160005260206000209050919050565b60008160001c9050919050565b6000819050919050565b60006111976111928361116d565b61117a565b9050919050565b60006111aa8254611184565b9050919050565b6000600182019050919050565b60006111c98261114d565b6111d38185610b9c565b93506111de83611158565b8060005b83811015611216576111f38261119e565b6111fd8882610bcc565b9750611208836111b1565b9250506001810190506111e2565b5085935050505092915050565b600060a0820190506112386000830188610b59565b818103602083015261124a8187610cd1565b90506112596040830186610b59565b6112666060830185610dc6565b818103608083015261127881846111be565b90509695505050505050565b600061128f82610b4f565b91507fffffffffffffffffffffffffffffffffffffffffffffffffffffffffffffffff82036112c1576112c061100b565b5b60018201905091905056fea2646970667358221220d122384fe7360642b686c6eedf18e8a5794eac3465b6b03063082a3879b5804564736f6c634300080d0033",
  "immutableReferences": {},
  "source": "//SPDX-License-Identifier: MIT\npragma solidity >=0.6.0 <0.9.0;\n\ncontract Marketplace {\n    //State variables\n    string public name;\n    uint256 public courseCount = 0;\n    mapping(uint256 => Course) public courses;\n    mapping(address => uint256) public userDownloads;\n    mapping(address => Enrolled) enrolledCourses;\n\n    // Data structures\n    struct Course {\n        uint256 id;\n        string name;\n        uint256 price;\n        address payable owner;\n    }\n\n    struct Enrolled{\n        uint256[] courseList;\n    }\n\n    event CourseCreated(\n        uint256 id,\n        string name,\n        uint256 price,\n        address payable owner\n    );\n\n    event CourseSubscribed(\n        uint256 id,\n        string name,\n        uint256 price,\n        address payable owner,\n        uint256[] subscriberList\n    );\n\n    event RewardsBalance(address payable owner, uint256 balance);\n\n    event Received(address, uint256);\n\n    // constructor\n    constructor() payable {\n        name = \"UBPrep Marketplace\";\n        //To fund the contract for rewards feature \n        payable(this).transfer(msg.value);\n    }\n\n    //Modifier to check if user is eligible for rewards\n    modifier onlyEligible {\n      require(userDownloads[msg.sender] >= 5);\n      _;\n   }\n\n    function viewBalance() public view returns (uint256) {\n        return address(this).balance;\n    }\n\n    function getCourseId() public view returns (uint256) {\n        return courseCount;\n    }\n\n    function createCourse(\n        string memory _name,\n        uint256 _price\n    ) public {\n        // Require a valid course name\n        require(bytes(_name).length > 0);\n        // Require a valid course price\n        require(_price > 0);\n\n        courseCount++;\n        courses[courseCount] = Course({\n            id: courseCount,\n            name: _name,\n            price: _price,\n            owner: payable(msg.sender)\n        });\n\n        // Triger an event\n        emit CourseCreated({\n            id: courseCount,\n            name: _name,\n            price: _price,\n            owner: payable(msg.sender)\n        });\n    }\n\n    function subscribeCourse(uint256 _id) public payable {\n        Course memory _course = courses[_id];\n        address payable _creator = _course.owner;\n\n        // Check if the id is valid\n        require(_course.id > 0 && _course.id <= courseCount);\n        // Require that there is enough Ether in the transaction\n        require(msg.value >= _course.price);\n        // Require that the subscriber is not the creator\n        require(_creator != msg.sender);\n\n        // Pay the owner\n        payable(_creator).transfer(msg.value);\n        //Add course to enrolled courses\n        enrolledCourses[msg.sender].courseList.push(_id);\n        //Increase download count of owner\n        userDownloads[_creator] += 1;\n\n        // Trigger an event\n        emit CourseSubscribed({\n            id: courseCount,\n            name: _course.name,\n            price: _course.price,\n            owner: payable(msg.sender),\n            subscriberList: enrolledCourses[msg.sender].courseList\n        });\n    }\n\n    function getEnrolledCourses() public view returns(uint256[] memory){\n        return enrolledCourses[msg.sender].courseList;\n    }\n\n    function getRewards() public onlyEligible{\n        //Reduce the reward threshold by 5\n        userDownloads[msg.sender] -= 5;\n        //Reward user 5 ether\n        uint256 reward = 5 ether;\n        payable(msg.sender).transfer(reward);\n        emit RewardsBalance({\n            owner: payable(msg.sender),\n            balance: msg.sender.balance\n        });\n    }\n\n    receive() external payable {\n        emit Received(msg.sender, msg.value);\n    }\n}",
  "sourcePath": "/Users/prashantbhatt/Desktop/Desktop/UB-Sem-2/Blockchain/project/contracts/Marketplace.sol",
  "compiler": {
    "name": "solc",
    "version": "0.8.13+commit.abaa5c0e.Emscripten.clang"
  },
  "schemaVersion": "3.4.7",
  "updatedAt": "2022-04-19T17:12:41.686Z",
  "networkType": "ethereum",
  "devdoc": {
    "kind": "dev",
    "methods": {},
    "version": 1
  },
  "userdoc": {
    "kind": "user",
    "methods": {},
    "version": 1
  }
}